:020000040800F2
:10000000C84E00205D020008AB250008D52300087B
:10001000A9250008350900081D2F00080000000070
:100020000000000000000000000000009D0100082A
:10003000B10D000800000000F90100082D2A000899
:1000400077020008770200087702000877020008AC
:10005000770200087702000877020008770200089C
:10006000770200087702000877020008770200088C
:10007000770200087702000877020008770200087C
:100080007702000877020008770200084509000897
:100090003909000877020008770200087702000893
:1000A000770200087702000877020008770200084C
:1000B000770200087702000877020008770200083C
:1000C000770200087702000877020008770200082C
:1000D00077020008052F0008770200087702000861
:1000E000770200087702000877020008770200080C
:1000F00077020008770200087702000877020008FC
:1001000077020008770200087702000877020008EB
:1001100077020008770200087702000877020008DB
:1001200077020008AD0B0008D50B00087702000825
:1001300077020008770200087702000877020008BB
:1001400077020008770200087702000877020008AB
:10015000770200087702000877020008112F0008D4
:10016000770200087702000877020008770200088B
:1001700077020008770200087702000800000000FC
:100180007702000877020008DFF80CD000F0C0FB0F
:1001900000480047C53E0008C84E00202C4B196897
:1001A0000868B0E8F04F80F30988BFF36F8F4FF015
:1001B000000080F3118870470000000008480068C4
:1001C000006880F308884FF0000080F3148862B65E
:1001D00061B6BFF34F8FBFF36F8F00DF00BF00BF6B
:1001E00008ED00E0DFF80C00016841F470010160E7
:1001F000704700BF88ED00E0EFF30980BFF36F8F19
:10020000134B1A681EF0100F08BF20ED108A20E96A
:10021000F04F106009B44FF0500080F31188BFF325
:100220004F8FBFF36F8F04F05BFD4FF0000080F342
:10023000118809BC19680868B0E8F04F1EF0100F6B
:1002400008BFB0EC108A80F30988BFF36F8F704746
:1002500058000020EFF305807047000006488047F3
:1002600006480047FEE7FEE7FEE7FEE7FEE7FEE79B
:10027000FEE7FEE7FEE7FEE7CD2A00088901000859
:100280002DE9F05F0546002092469B4688460646CB
:10029000814640241BE0284641464746224600F05E
:1002A00068FA53465A46C01A914110D3114618466F
:1002B000224600F04FFA2D1A67EB01084F462246FE
:1002C0000120002100F046FA17EB00094E41201EE4
:1002D000A4F10104DFDC484631462A464346BDE826
:1002E000F09F40EA01039B0703D009E008C9121FF1
:1002F00008C0042AFAD203E011F8013B00F8013BE0
:10030000521EF9D27047D2B201E000F8012B491E0B
:10031000FBD270470022F6E710B513460A460446A2
:100320001946FFF7F0FF204610BD2DE9FE4F80462D
:1003300081EA0300C00F0C46009021F0004123F039
:100340000045B8EB0200A94105D24046214690463F
:100350001C460B46024623F00040104347D0270DB1
:10036000C7F30A00C3F30A510290401A01904028D3
:100370006BDAC3F3130040F4801B0098924620B15F
:100380000023D2EB030A63EB0B0B01985946C0F133
:100390004002504600F0DEF906460D4650465946EA
:1003A000019A00F0F6F910EB08006141002487EA99
:1003B000115284EAE7731A4340D0009A62B3019A5B
:1003C000012A4FEA075215DC001B61EB02014FF0D6
:1003D000004202EA0752CDE90042001C41F58011BB
:1003E00032462B4600F02DFA03B0BDE8F08F4046B0
:1003F0002146F9E7001B61EB0201001C41F5801367
:1004000000185B412018A2F5001747EB030140EAF2
:10041000D570B6196D4111E06D084FEA360645EA10
:10042000C0754FEA0752001B61EB0201001C41F549
:10043000801149084FEA30000019514132462B46DD
:1004400003B0BDE8F04F00F0EDB900980122400084
:100450000023D0EB020263EBE073009821464FEAE1
:10046000E074B8EB000061EB0401E9E783F00043BE
:100470005BE781F0004158E72DE9FE4F81EA030474
:1004800004F0004421F0004100944FF0000B23F0F1
:10049000004350EA01045ED052EA03045BD0C3F388
:1004A0000A54C1F30A552C44A4F2F3340194A0FB7E
:1004B0000254C1F3130141F48011C3F3130343F455
:1004C000801301FB024400FB034E840A970A44EAAE
:1004D000815447EA8357A4FB076802958D0A05FB00
:1004E00007854FEA932C04FB0C542705029D4FEA25
:1004F000065847EA1637B5EB08056EEB070C870E72
:10050000920E47EA811742EA8312A7FB0201B6EB7B
:100510000B0164EB00042B0D43EA0C335E1844EB33
:100520001C50DA465146E7FB0201C5F313044FEABB
:100530000B3343EA14534FEA0432019C43EA0603A7
:10054000A4F10C040294009CCDE900B400F079F908
:1005500003B0BDE8F08F00200146F9E72DE9F04D2A
:1005600081EA030404F0004B21F0004514464FF0EB
:10057000000A23F0004150EA050220D054EA0102AB
:100580001DD0C5F30A570246C5F31303C1F3130088
:10059000C1F30A5640F4801543F48013A7EB060814
:1005A000101BD64608F2FD3873EB050002D308F1A4
:1005B000010801E092185B41B8F1000F03DA002056
:1005C0000146BDE8F08D00204FF4801106468446B8
:1005D0000EE0171B73EB050705D3121B63EB050336
:1005E00006434CEA010C49084FEA300092185B417F
:1005F00050EA0107EDD152EA030012D082EA04006A
:1006000083EA0501084305D0101BAB4106D2012245
:10061000002306E000224FF0004302E06FF00102E9
:1006200053101AEB06004CEB085110EB0A0041EB9B
:100630000B01BDE8F04D00F0F5B80EB5C10F80EA32
:10064000E0700844CA07002140F233438DE80E00F1
:100650000A460B4600F0F5F803B000BD70B5C1F3D3
:100660000A5201F000450024C1F3130140F2FF33A8
:1006700041F480119A4201DA002070BD40F2334308
:100680009A42A2F2334203DC524200F072F800E0D8
:1006900090402C43F1D0404270BD00F0004230F059
:1006A00000400AD0C10D01F56071C0F3160042EAA6
:1006B0000151C208400711437047002001467047AE
:1006C00030B5041E71F1000404DB4FF000444042D9
:1006D00064EB0101141E73F1000405DB1C464FF0AE
:1006E0000043524263EB0403994208BF904230BD7D
:1006F00001F0004330B421F0004150EA010206D07D
:100700000A0DA2F56072C1F31301002A02DC30BCAD
:1007100000207047440F44EAC104C100E01830BC17
:1007200000EBC25000F047B830B50B460146002040
:100730002022012409E021FA02F59D4205D303FAA3
:1007400002F5491B04FA02F52844151EA2F1010224
:10075000F1DC30BD202A04DB203A00FA02F100204F
:1007600070479140C2F1200320FA03F319439040EF
:100770007047202A04DB203A21FA02F0002170475A
:1007800021FA02F3D040C2F12002914008431946F9
:100790007047202A06DBCB17203A41FA02F043EAE1
:1007A000E07306E041FA02F3D040C2F1200291402A
:1007B0000843194670470029A8BF7047401C4900EC
:1007C00008BF20F00100704710B4B0FA80FC00FAB6
:1007D0000CF050EA010404BF10BC704749B1CCF1E1
:1007E000200421FA04F411FA0CF118BF012121436D
:1007F0000843A3EB0C01CB1D4FEA00614FEA102028
:1008000042BF002010BC704700EBC35010440029C9
:10081000A4BF10BC7047401C490008BF20F0010075
:1008200010BC704710B5141E73F1000408DA401CA8
:1008300041F1000192185B411A4301D120F00100FF
:1008400010BD2DE9F04D92469B4611B1B1FA81F2EF
:1008500002E0B0FA80F220329046FFF77BFF0446B8
:100860000F4640EA0A0041EA0B0153465A46084344
:1008700013D0114653EA010019D0C8F14002504686
:10088000FFF777FF05460E46504659464246FFF7AA
:1008900061FF084305D0012004E020463946BDE849
:1008A000F08D0020054346EAE0762C4337430A9852
:1008B0006305E40AA0EB08000022FD0A44EA47545D
:1008C0000A3002D500200146E9E701051019694107
:1008D000DDE9084500196941BDE8F04DA2E7C1F323
:1008E0000A52C1F3130140F2FF3341F480119A42DE
:1008F00002DA00200146704740F233439A42A2F2E6
:10090000334202DC5242FFF734BFFFF723BF00003F
:10091000064C074D06E0E06840F0010394E807004C
:1009200098471034AC42F6D3FFF732FC7051000800
:1009300090510008FEE70000014800F0B8BB00003D
:10094000180A0020014800F0B2BB0000180A00207D
:1009500070B50C46054663A100F004F918B12046B5
:1009600003F070FBB6E060A1284600F0FBF818B178
:10097000204603F0A7FBADE05CA1284600F0F2F8AA
:1009800018B1204603F0BCFBA4E059A1284600F0B2
:10099000E9F80028E6D157A1284600F0E3F800283E
:1009A000E0D155A1284600F0DDF80028DAD153A1A6
:1009B000284600F0D7F80028D4D151A1284600F0ED
:1009C000D1F80028CED14FA1284600F0CBF800285E
:1009D000C8D14DA1284600F0C5F800287AD14BA116
:1009E000284600F0BFF8002874D149A1284600F03D
:1009F000B9F800286ED147A1284600F0B3F80028C6
:100A000068D145A1284600F0ADF8002862D143A185
:100A1000284600F0A7F800285CD141A1284600F044
:100A2000A1F8002856D13FA1284600F09BF80028E5
:100A300050D13DA1284600F095F800284AD13BA1AD
:100A4000284600F08FF8002844D139A1284600F04C
:100A500089F800283ED137A1284600F083F8C8BBAA
:100A600035A1284600F07EF8A0BB34A1284600F04E
:100A700079F878BB32A1284600F074F850BB31A158
:100A8000284600F06FF810B103F0D8F922E02EA14B
:100A9000284600F067F8E8B92CA1284600F062F873
:100AA000C0B92BA1284600F05DF898B929A12846C5
:100AB00000F058F870B928A1284600F053F848B95A
:100AC00026A1284600F04EF820B925A1284600F0BE
:100AD00049F808B1002070BD2146284603F030F8DF
:100AE000F8E700002A3100002A3200002A33000013
:100AF0002A3400002A3500002A3600002A37000078
:100B00002A3800002A390000233100002332000077
:100B10002333000023340000233500002336000077
:100B200040310000403200004033000040340000FB
:100B300040350000403600004037000040380000DB
:100B4000403900002431000024320000243300002A
:100B5000243400002436000024370000243800002C
:100B60002439000030B50C46054601F043FF03462A
:100B7000204601F03FFF83420AD1002004E0295CB7
:100B8000225C914204D1401C9842F8DB012030BD28
:100B9000002030BD0022835C23B18B54521C642A98
:100BA000F9DB00E08B5401207047000008B50648CF
:100BB00000F024FD0548007800F0B2F80448006811
:100BC00001684068009008BD740D0020CA03002031
:100BD000D40C002010B5044800F010FDBDE8104012
:100BE0000249034803F0D2BD140D00201004002078
:100BF000FC03002001681823CAB2103AB2FBF3F2DA
:100C0000054B6FF30901032A9B5CC36500D9091DDD
:100C100081650846704700002C51000810B5014658
:100C200000208B698A6A4FF0C07453B1B3F5005F3E
:100C300015D072B1012A0CD0022A0AD0032A09D198
:100C400004E01AB1012A06D0022A03D1C96AC901F7
:100C500000D5012010BDC96AA142FAD010BD002AFA
:100C6000F7D0012AF2D0022AF3D0032AF3D010BD24
:100C700030B50468256825F4802525600468636024
:100C80008368402B036803D099600068C26030BD60
:100C90009A600068C16030BD2DE9F04781460027A9
:100CA000012601F0A7FE050034D00024DFF868809B
:100CB0002DE0621C2146484601F0A4FE17A1FFF773
:100CC00051FF88B122463946484601F09BFE01F0AB
:100CD000F7FD10EE100AFFF7E0FC08EBC602671CF8
:100CE000C2E90001761C11E0281B01280ED12A461A
:100CF0003946484601F086FE01F0E2FD10EE100A8A
:100D0000FFF7CBFC08EBC602C2E90001641CAC4251
:100D1000CFDB3046BDE8F087F80600202000000059
:100D200070B52149214B28280A780BD012B198546C
:100D3000521C0A7029280BD10024D0B225461C541D
:100D40000C700BE0002AF2D12820187001200870E6
:100D500070BD5819407858556D1CEDB2134801F01C
:100D600049FE401EA842F4DC104801F043FE18443E
:100D70000E4A00F8024C503AA2F114010B4801F05F
:100D800024FC0A485038FFF787FF014607486438BB
:100D9000FFF7DEFD0549002050390C54401CC0B25D
:100DA0006428FAD370BD0000140000202C06002037
:100DB0007047704702460020431E115C202904D072
:100DC00011B1401C6428F8DB1846704790F82020C9
:100DD000012A07D0022A05D0416A41F480214162EC
:100DE00001207047006842690A4342610020704751
:100DF000F0B590F820500468A468012D05D0022DAC
:100E000003D0416A41F4802153E014F0406F01D1D6
:100E1000E5004BD5C4F30164022C03D9416A41F4C7
:100E2000000146E00125A5401D608D684FF4C073A8
:100E30009DB1CE6835434E6845EAC605066803EBAA
:100E40000417F5514FF4C275076805EB04150E69D8
:100E50007E51097D012905D009E00E88CD6845EA5B
:100E60004655EBE701684E5946F480764E511179AC
:100E7000D2F805504FF4C67641EA0525016806EB25
:100E800004168D511178D2F801204FF4C47541EA4F
:100E90000221026805EB04155151006803EB0411AF
:100EA000425842F0010242500020F0BD416A41F434
:100EB000001141620120F0BD10B590F82020012AF8
:100EC00007D0022A05D0416A41F480214162012005
:100ED00010BD3B48D0F8002242F00102C0F80022C9
:100EE000D0F8002222F47C52C0F80022D0F8002270
:100EF0004B6A42EA0322C0F800220A7D02F01F0377
:100F000001229A40D0F81C329343C0F81C32CB69BE
:100F1000B3B9D0F80C329343C0F80C328C894B68CB
:100F200064F31F434C6900EBC404C4F840320C89DD
:100F30000B6864F31F434C6900EBC404C4F84432EB
:100F4000CB69012B16D1D0F80C321343C0F80C3208
:100F50000C884B6864F31F434C6900EBC404C4F86D
:100F600040320C89CB6864F31F434C6900EBC40426
:100F7000C4F844328B69002BD0F804320ED01343EE
:100F8000C0F804320B69002BD0F8143208D0134398
:100F9000C0F81432096A012904D008E09343EFE74E
:100FA0009343F5E7D0F81C121143C0F81C12D0F897
:100FB000001221F00101C0F80012002010BD000055
:100FC00000640040704730B590F82040012C05D0F7
:100FD000022C03D0416A41F480215DE004680029BD
:100FE00055D02469A40754D04FF4D874056804EB95
:100FF00001142D5915F00405956005682D594ED042
:10100000ED08556005682C59C4F34004D4604FF4D2
:10101000DA74056804EB01142D5905F00F0515610C
:1010200005682D59C5F30725956105682C59240CD1
:1010300054614FF4DC72046802EB0112A4581C7076
:101040000468A458240A5C700468A458240C9C709A
:101050000468A258120EDA704FF4DE72046802EBD4
:101060000112A4581C710468A458240A5C71046815
:10107000A458240C9C710468A258120EDA710068FE
:1010800081B1016941F020010161002030BDE468B7
:10109000A8E7416A41F400114162012030BD6D0DA5
:1010A0001560AFE7C16841F02001C160EDE72DE9AF
:1010B000F05F0546006800244669D0F80490876810
:1010C000D0F80CB0D0F810A0D0F81880F10748D0B4
:1010D000F90714D001218160B80703D5284600F034
:1010E00040FA0CE0780702D54FF4006407E03807B7
:1010F00002D54FF4805402E0284600F031FAF8059A
:1011000016D529684FF480708860B80503D5284645
:1011100000F029FA0CE0780502D544F4005407E009
:10112000380502D544F4804402E0284600F01AFA5B
:10113000F80316D529684FF480308860B80303D5CA
:10114000284600F012FA0CE0780302D544F400447B
:1011500007E0380302D544F4803402E0284600F06A
:1011600003FA300707D55FEACB6004D52968102061
:1011700044F40074C86070074FF0080707D55FEAB1
:101180000B7004D52868C760284600F061F9B007E5
:1011900006D52868C068800702D0284600F05AF9B2
:1011A000700607D55FEACA6004D52968102044F4A8
:1011B00080640861B00607D55FEA0A7004D5286824
:1011C0000761284600F09CF9F00606D528680069FA
:1011D000800702D0284600F094F9B00308D55FEAF2
:1011E000C96005D5296810204860284600F08AF9B2
:1011F000F00307D55FEA097004D5286847602846E0
:1012000000F0B4F9300446D55FEA497040D5F005E6
:1012100004D55FEAC87001D044F00104B00504D5DC
:101220005FEA887001D544F00204700504D55FEAD6
:10123000487001D544F00404300529D518F0700F2A
:1012400026D008F07000402815D006DC102809D000
:1012500020280AD0302816D10AE050280ED0602865
:1012600011D10EE044F008040DE044F010040AE04F
:1012700044F0200407E044F0400404E044F080041B
:1012800001E044F480742868816921F07001816173
:10129000296804204860002C05D0686A20436862F1
:1012A0002846FFF78FFEBDE8F09F70B5040003D01D
:1012B00094F8200010B104E0012070BD204600F039
:1012C00081F82068016821F00201016000F002FC51
:1012D0000546052604E000F0FDFB401B0A2811D856
:1012E000206840688007F6D42068016841F0010159
:1012F000016000F0EFFB05460BE000F0EBFB401B4C
:101300000A2806D9606A40F40030606284F82060E0
:10131000D2E720684068C007EFD0207E012820680F
:1013200001683DD021F080010160607E01282068C5
:10133000016838D021F040010160A07E01282068BA
:10134000016833D021F020010160E07E012820688F
:1013500001682ED041F010010160207F0128206833
:10136000016829D021F008010160607F0128206810
:10137000016824D021F004010160D4E9020108438E
:10138000D4E90412114308436168491E08432168E7
:10139000C86100206062012084F82000002070BD38
:1013A00041F08001C0E741F04001C5E741F0200174
:1013B000CAE721F01001CFE741F00801D4E741F07E
:1013C0000401D9E710B586B0044614216846FEF73B
:1013D000A1FF1C492068884231D11B4800210268C6
:1013E00042F000720260006800F00070059016483C
:1013F0001038026842F001020260006800F001004B
:1014000005904FF4C05000900220CDE90101032067
:1014100003900920049069460C4800F077FA0022F6
:101420000521132000F0C8FB132000F0B7FB0022B9
:101430000521142000F0C0FB142000F0AFFB06B023
:1014400010BD00000064004040380240000002402F
:101450007047000010B5006824498AB0884223D143
:1014600007AB6A4600212248FFF7ADFD0098214CEA
:10147000B0F5017F1AD008DCA0F50070013815D056
:10148000012813D002280FD110E0A0F50070053814
:101490000CD0012819D0B0F5FE7F05D1174907AB54
:1014A000154A881E02F0D2FC0AB010BD00981349FC
:1014B000401E091FC0B20870BDF81E1000EBC0002E
:1014C00004EBC00049BAC180EEE70B4807A94838D1
:1014D00002F03EFCD4F88C010A28E5D2401CC4F886
:1014E0008C0194ED5F0A84ED610ADDE70064004041
:1014F000180A0020D40100208403002008000020E6
:10150000704770477047000070B5044690F820009F
:10151000012804D0606A40F40020606218E00220D4
:1015200084F820002068016821F00101016000F0CA
:10153000D1FA05460EE000BF00F0CCFA401B0A28A5
:1015400008D9606A40F400306062052084F8200009
:10155000012070BD20684068C007EDD1606270BD99
:1015600070477047704770477047704770472DE964
:10157000F0410446876D00F0ADFA064694F8350058
:101580000025022806D08020606584F834500120B0
:10159000BDE8F0812068016821F016010160206833
:1015A000416921F080014161206C08B9A06C20B133
:1015B0002068016821F0080101602068016821F0BD
:1015C000010101600BE000F085FA801B052806D9B7
:1015D0002020606504F8345F03206070D8E720683D
:1015E0000068C007EFD194F85C103F208840B860D5
:1015F00004F8345F012060700020C9E72DE9F8434A
:1016000004464FF00009CDF8009063484FF416519E
:10161000A56D0068B0FBF1F72E6894F85C10082007
:1016200000FA01F131420FD021680A6852070BD548
:101630000A6822F004020A6094F85C108840A860EE
:10164000606D40F00100606594F85C104FF0010897
:1016500008FA01F0304208D021684969090604D52A
:10166000A860606D40F00200606594F85C10042092
:101670008840304208D021680968890704D5A860ED
:10168000606D40F00400606594F85C1010208840A4
:10169000304218D021680968090714D5A86020686D
:1016A0000168490304D50068000308D5A16C07E070
:1016B0000168C90503D4016821F008010160216CAB
:1016C00009B12046884794F85C10202088403042B9
:1016D00031D021680968C9062DD5A86094F8350075
:1016E00005282068016806D0490347D50068000333
:1016F0001DD4616C1CE021F0160101602068416975
:1017000021F080014161206C08B9A06C20B12068F3
:10171000016821F00801016094F85C103F208840C6
:10172000A86084F8349084F83580216D1FE0E16B67
:1017300009B120468847606D00282BD0606DC00736
:1017400014D0052084F835002068016821F00101DB
:1017500001600098401C0090B84203D820680068DF
:10176000C007F6D184F8349084F83580E16C002904
:1017700010D001B02046BDE8F04308470168C90514
:10178000D5D4016821F01001016084F8349084F808
:101790003580CCE7BDE8F883540000202DE9F04106
:1017A000044600F097F906465CB1002584F83450F1
:1017B000022084F835002068016821F001010160F1
:1017C0000DE00120BDE8F08100F084F9801B0528C0
:1017D00005D920206065032084F83500F2E72068F1
:1017E0000068C007F0D12268116820480140D4E9A0
:1017F00001031843D4E9033633431843636918439C
:10180000A3691843E3691843236A18430843616ACC
:10181000042903D1D4E90B1319430843106020684D
:101820004069666A20F0070130460E43012704280C
:101830000CD1A06A0643E06A40B12046FFF7EEF9FA
:1018400020B14020606584F83570BAE720684661B1
:101850002046FFF7CFF994F85C203F21914081604A
:10186000656584F835700020ACE700003F8010F01B
:101870002DE9F0410446866D90F8340000250128DA
:101880000DD0012084F8340094F835700020012F29
:1018900007D084F8340002252846BDE8F0810220F4
:1018A000FBE7022784F8357060652046FFF7E0F912
:1018B00094F85C103F208840B0602068016841F0D7
:1018C000160101602068416941F080014161206C8E
:1018D00020B12068016841F00801016020680168BA
:1018E00041F001010160D7E770B5044600F0F2F85D
:1018F0000546601C02D004480078044400F0EAF871
:10190000401BA042FAD370BD480000202DE9F84FDB
:10191000DFF87CB100224FF001084FF0030A4FF0CE
:101920000F090BF1040E00BF0B6808FA02F4234004
:10193000A3426ED14D68022D01D0122D0ED1D508D3
:1019400000EB850CDCF820505607F70E09FA07F675
:10195000B5430E69BE402E43CCF8206006685500A2
:101960000F790AFA05FC07F0030726EA0C06AF40D8
:10197000374307604E68012E05D0022E03D0112E8A
:1019800001D0122E0ED18668CF6826EA0C06AF4031
:10199000374387604668A6430C79C4F3001494402B
:1019A00034434460C6688C6826EA0C06AC40344375
:1019B000C4604C68E40065D5364C256845F4804524
:1019C0002560246822F0030504F480440094324C1E
:1019D0002E19D6F8084895072F0F09FA07F5AC43DA
:1019E0002E4DA84201D1002524E02D4DA84201D161
:1019F00001251FE02B4DA84201D102251AE02A4DF6
:101A0000A84201D1032515E0284DA84202D10425A2
:101A100010E037E0264DA84201D105250AE0254D0A
:101A2000A84201D1062505E0234DA84201D1072592
:101A300000E00825BD402543C6F80858DBF8004003
:101A40005D464E689C43F60300D51C432C60DEF8CF
:101A5000004075464E689C43B60300D51C432C607D
:101A60000B4D08352C684E689C43F60200D51C438C
:101A70002C60074D0C352C684E689C43B60200D58F
:101A80001C432C60521C102AFFF44EAFBDE8F88FA7
:101A9000003C014044380240003001400000024058
:101AA0000004024000080240000C02400010024006
:101AB0000014024000180240001C0240426931EA52
:101AC000020200D10904816170470AB18161704747
:101AD0000904FBE7014880687047000048000020C7
:101AE00002488168027811448160704748000020F4
:101AF0000B4810B5016841F400710160016841F4C0
:101B000080610160016841F480710160032000F090
:101B100073F80F2000F006F800F024F8002010BD44
:101B2000003C024070B50D4D04464FF47A712878A0
:101B3000B1FBF0F00A490968B1FBF0F000F0E6FAF9
:101B400048B9102C07D200222146501E00F034F86C
:101B500000206C6070BD012070BD000048000020B6
:101B6000540000200C4882B0016841F480410160BB
:101B7000006800F4804000900748001F016841F0B1
:101B8000805101600068002200F0805000900F2119
:101B9000901E02B000F010B844380240002809DB63
:101BA00000F01F02012191404009800000F1E02077
:101BB000C0F8001170470000F0B40E4B1B680C46D3
:101BC000C3F30223C3F10705042D00D90425191D11
:101BD000072901D2002300E0DB1E012606FA05F1E9
:101BE000491E214099409E40761E16403143F0BC6C
:101BF00001F0A6B90CED00E0064900F00702086804
:101C00004FF6FF03184040EA0220034A10430860E1
:101C1000704700000CED00E00000FA052DE9F047E8
:101C20000E46050065D0DFF81481D8F80000F7B241
:101C300000F00F00B04207D288F80070D8F800001A
:101C400000F00F00B04254D128683D4C810712D5F6
:101C5000400703D5206840F4E05020602878000752
:101C600003D5206840F4604020602068A96820F017
:101C7000F000084320602878C0072DD030496868FC
:101C80000839012812D0022813D0032811D009687E
:101C9000890700292DDA216821F003010143216021
:101CA000FFF718FF814641F2883A0EE00968890380
:101CB000EFE709688901ECE7FFF70CFFA0EB0901EA
:101CC000514502D90320BDE8F0872068696800F01B
:101CD0000C00B0EB810FEFD1D8F80010404601F0B6
:101CE0000F01B14207D90770006800F00F00B04241
:101CF00001D00120E7E72878400705D52068E9688A
:101D000020F4E050084320602878000706D52068BA
:101D1000296920F4604040EAC100206000F036F8F4
:101D20002168084AC1F30311515CC84006490860A4
:101D30000F20FFF7F7FE0020C5E70000003C02403F
:101D40000838024034510008540000200448054976
:101D500000680968044AC1F38221515CC840704799
:101D60005400002008380240445100080448054946
:101D700000680968044AC1F34231515CC8407047A9
:101D8000540000200838024044510008154810B59E
:101D9000006810F00C02144813D01449042A0FD024
:101DA000082A0ED10F4C241F2268236802F03F023C
:101DB0005B0207D52068C0F38810A0FB010106E094
:101DC000084610BD2168C1F38811A1FB0001002362
:101DD000FEF756FA2168C1F30141491C4900B0FBE6
:101DE000F1F010BD083802400024F40040787D0175
:101DF0002DE9F84F050076D02878DFF8F8B2BE4C10
:101E0000C00749D0DBF800105846C1F38101012911
:101E100008D00068C0F3810002280AD1201D0068A4
:101E2000400206D52068800336D568680028E2D0D5
:101E300032E06868B0F5803F10D0B0F5A02F206880
:101E400010D020F480302060206820F480202060B2
:101E50006868A0B1FFF73EFE06460CE0206840F43B
:101E60008030F4E740F480202060F7E7FFF732FE8F
:101E7000801B642873D820688003F7D50CE0FFF737
:101E800029FE064605E000BFFFF724FE801B6428FC
:101E9000F0D820688003F7D42878DFF860828007C4
:101EA0004FF000093ED5DBF80010584611F00C0F3A
:101EB00009D00068C0F3810002280BD18D48001FB3
:101EC0000068400206D42068800715D5E86801281C
:101ED00009D111E0E868B8B10120C8F80000FFF7A7
:101EE000F9FD064605E002E1FFF7F4FD801B02283C
:101EF000C0D820688007F7D52068296920F0F8004D
:101F000040EAC10020600DE0C8F80090FFF7E2FD54
:101F1000064604E0FFF7DEFD801B02281FD820687C
:101F20008007F7D42878000722D5724E7448696973
:101F30006C3671B101210160FFF7CCFD074604E06A
:101F4000FFF7C8FDC01B022809D830688007F7D505
:101F50000EE0C0F80090FFF7BDFD074605E083E006
:101F6000FFF7B8FDC01B02287ED830688007F7D481
:101F70002878400768D5DFF87CA100270AF1380AE5
:101F8000DAF80000C0000BD4DAF8001041F08051FC
:101F9000CAF80010DAF80000012700F08050009025
:101FA000584E3068C00510D4306840F480703060FE
:101FB000FFF790FD009005E0FFF78CFD0099401AB7
:101FC000022851D83068C005F6D54A4EA868683650
:101FD00001280FD00528306810D020F001003060B3
:101FE000306820F004003060A868B8B1FFF772FDD7
:101FF00000900FE0306840F00100F4E740F004008A
:102000003060F7E7FFF766FD0099411A41F288302A
:10201000814264D830688007F4D50EE0FFF75AFD9E
:10202000009007E0FFF756FD0099411A41F2883011
:10203000814254D830688007F4D42FB1DAF8001008
:1020400021F08051CAF80010A869C0B3DBF8001075
:10205000C1F3810102294AD00228484607D0C8F8B6
:102060006000FFF737FD00E039E005463AE04746FB
:10207000C8F86000FFF72EFD064604E0FFF72AFDD2
:10208000801B02282BD820688001F7D4D5E90701EE
:102090000843A96A1C4A490802EB01416A6A41EAFD
:1020A0008211084395F82C1040EA01611148001F85
:1020B000016001203866FFF70DFD054605E014E0DC
:1020C000FFF708FD401B022809D820688001F7D5DA
:1020D0000BE000BFFFF7FEFC401B022802D90320E3
:1020E000BDE8F88F20688001F4D40020F8E70120D3
:1020F000F6E700000838024000380240000047427E
:10210000800E4742007000400000FFFF10B5401EE7
:10211000B0F1807F01D3012010BD4FF0E024606159
:102120000F21601700F00CFF0020A0610720206144
:10213000002010BD10B504460068416994F83920AC
:10214000C1F3C011212A0BD151B1416921F08001A5
:102150004161206B08B1FFF70AFA204600F036FD16
:102160002068416994F83A20C1F38011222A0BD1EA
:1021700051B1416921F040014161606B08B1FFF745
:10218000F6F9204600F014FD002010BD08B5C16B23
:10219000082903D1006801684068009008BD70B547
:1021A000040004D094F83900002510B106E00120A5
:1021B00070BD84F83850204600F022F8242084F8BE
:1021C00039002068C16821F40051C160204600F048
:1021D00043FD2068016921F4904101612068416953
:1021E00021F02A0141612068C16841F40051C160B9
:1021F000E563202084F8390084F83A00002070BD9F
:10220000F0B587B0064614216846FEF783F84448C7
:10221000DFF808E11438D6F800C000244049022253
:10222000012303250715F44536D1D1F800C04CF041
:10223000100CC1F800C0096801F010010591016897
:1022400041F0010101600068694600F0010005905D
:1022500068028DE82D00072004903248FFF756FBF6
:10226000324D314828607804C5E90104C5E90347C7
:102270006C61AC61EC612C6228466C62FFF78EFAEF
:1022800008B1FEF796FD7563002205212520AE6397
:10229000FFF792FC25203DE0DFF894E0F4453BD1C8
:1022A000D1F800C04CF0200CC1F800C0096801F062
:1022B00020010591016841F0040101600068694650
:1022C00000F004000590C0208DE82D000820049047
:1022D0001848FFF71BFB154D134860351838286068
:1022E0008005C5E90104C5E903474FF480706C61BE
:1022F000C5E906402C6228466C62FFF74FFA08B128
:10230000FEF757FD7563002205214720AE63FFF7F6
:1023100053FC4720FFF742FC07B0F0BD001001401E
:10232000443802400000024040640240140D002086
:102330000014014000080240F8B5044690F83A0045
:1023400020283CD1C1B3BAB394F83800012836D064
:10235000012084F83800A162A2850025E5632220CF
:1023600084F83A00636B1748D863636B16481864A7
:10237000636B1648D864606B134605650846666B48
:10238000216802463046091DFFF772FA206801688D
:102390004168009184F83850C16841F48071C1608F
:1023A0002068416941F0010141612068416941F0C3
:1023B000400141610020F8BDFFE70120FBE702205A
:1023C000F9E700006B2B0008A72B0008212B000861
:1023D00070477047FEE70000104810B50E490160D5
:1023E0000321416000214FF400228160C0E9031203
:1023F0004FF4401242610176012242768176C17625
:1024000001774177FEF751FF002803D0BDE8104067
:10241000FEF7CFBC10BD000000640040180A002089
:102420000D4808B5016841F4800101600068002290
:1024300000F48000009005213920FFF7BDFB392012
:10244000FFF7ACFB002205213A20FFF7B5FBBDE802
:1024500008403A20FFF7A2BB3038024010B596B0D2
:102460001C2211496846FDF73CFF0021684601F037
:1024700078FE0E4C0C491C2220601C3107A8FDF789
:1024800030FF002107A801F06CFE074960601C22A4
:1024900038310EA8FDF725FF00210EA801F061FEDE
:1024A000A06016B010BD0000D85000083C0000200D
:1024B00070B586B014216846FDF72CFF1A48002538
:1024C000016841F080010160016801F0800105911F
:1024D000016841F004010160016801F00401059107
:1024E000016841F001010160016801F001010591FD
:1024F000016841F00201016000680C4E00F002002A
:102500004FF400740590002221463046FFF7DDFAB3
:102510000121CDE90041CDE9021569463046FFF7BA
:10252000F5F906B070BD00003038024000040240EA
:102530000D4810B50B4901600C49416000214FF472
:1025400080628160C0E903120422C0E90521C161F3
:10255000FFF725FE002803D0BDE81040FEF729BC98
:1025600010BD000000100140940C0020A086010066
:102570000C4810B50A4901604FF4E1314160002177
:1025800081600C22C160C0E904128161C161FFF762
:1025900006FE002803D0BDE81040FEF70ABC10BDBF
:1025A00000140140D40C0020FEE7704701EE901AA1
:1025B000F8EE611AC0ED031A01EE902AF8EE611AE6
:1025C000C0ED0A1A80EC030A7047F0B514460E46B7
:1025D0000746FEF7EFFB0346384600F00BFA0146CC
:1025E000002002E03A5C3254401C9842FADB00259D
:1025F000F554581C06E0A0EB030C3A5CA444401CC4
:102600000CF8012C8842F6DB65545B1C04D1314682
:102610003846FEF7BFFA2570F0BD00003F4E404C33
:10262000404F414DDFF804914FF400787068FEF799
:1026300034F841EC100B3EA053EC102B00F070FC72
:10264000B068FEF72AF841EC100B40A053EC102BB9
:1026500000F066FCA068FEF720F841EC100B42A0E9
:1026600053EC102B00F05CFCE06EFEF716F841EC2A
:10267000100B42A053EC102B00F052FCB4F92810C0
:1026800046A000F04DFC4BA0396800F049FC4EA07C
:1026900000F046FCB4F9341053A000F041FCB5F949
:1026A000061057A000F03CFCB4F936105AA000F018
:1026B00037FCB5F94E105EA000F032FCB4F93810CA
:1026C00061A000F02DFCB5F996105FA000F028FC89
:1026D000B4F93A1062A000F023FCB5F9DE1060A056
:1026E00000F01EFCB4F93C1063A000F019FCB5F931
:1026F000261161A000F014FCB4F93E1064A000F0B3
:102700000FFCB5F96E1168A000F00AFC414648467E
:10271000FFF7D4F9C82001F011FD87E784030020FA
:10272000D400002094010020D401002000040240C5
:102730006779726F5F7961772E616E676C655F7A1A
:102740003D20252E33660D0A000000006779726F68
:102750005F7961772E7961775F73706565643D207D
:10276000252E33660D0A0000636861737369732E4A
:1027700076773D20252E33660D0A0000636861736D
:102780007369732E7461726765745F616E676C65DF
:102790003D20252E33660D0A00000000636861733A
:1027A0007369732E63757272656E743D2025640DB6
:1027B0000A0000006964656E746974795F6D732046
:1027C000303D2025640D0A002323232323232323C4
:1027D00023232323232323232323232323232323C9
:1027E00023232323230D0A00546F705F4C65667406
:1027F0005F5461726765743D2025640D0A00000016
:10280000546F705F4C6566745F53706565643D20FE
:1028100025640D0A00000000546F705F52696768FC
:10282000745F5461726765743D2025640D0A000071
:10283000546F705F52696768745F53706565643D7B
:102840002025640D0A0000004241434B5F4C656641
:10285000745F5461726765743D2025640D0A000041
:102860004241434B5F52696768745F5461726765A8
:10287000743D2025640D0A004D49445F4C65667423
:102880005F5461726765743D2025640D0A00000085
:102890004D49445F52696768745F5461726765743B
:1028A0003D2025640D0A00004D49445F5269676868
:1028B000745F53706565643D2025640D0A00000057
:1028C0002DE9F04106462DED088B4FF000089FEDF5
:1028D000438B4446B0EE489AF0EE689A305D58B1AA
:1028E000A0F130010A2903D32E2801D02D2803D1CD
:1028F000641CE4B20A2CF1D3002504E0705D2E289C
:1029000003D06D1CEDB2A542F8D300279FED35AB87
:1029100015E0F05D2D2818D03038FDF78EFE41EC23
:102920001B0B53EC1A2B51EC190BFDF7A5FD53ECC7
:102930001B2BFDF7FAFC41EC190B7F1CFFB2AF42D9
:10294000E7D37F1CFDB22F4618E04FF00108F4E7F3
:10295000705D30380A2813D2FDF76FFE41EC1B0B77
:1029600053EC1A2B51EC180BFDF786FD53EC1B2B87
:10297000FDF7DBFC41EC180B6D1CEDB2A542E7D373
:1029800000259FED1AABE41B0AE000BF53EC1A2BA5
:1029900051EC180BFDF770FD41EC180B6D1CEDB2FE
:1029A000AC42F3DC53EC182B51EC190BFDF7BDFCDA
:1029B00041EC100BB8F1000F05D051EC100B81F079
:1029C000004141EC100B51EC100BFDF791FEBDECFA
:1029D000088B00EE100ABDE8F08100000000000046
:1029E0000000000000000000000024409A9999991E
:1029F0009999B93F014600200A5C401C002AFBD18E
:102A0000401E704770B50B46074C04E0E618C55CE5
:102A1000761A5B1C35709342F8DB00202244511A71
:102A20000870014870BD00009006002010B5FFF747
:102A300057F802F077FA012803D0BDE8104002F001
:102A400003BA10BD30B593B030216846FDF762FC83
:102A500014210CA8FDF75EFC1A480025016841F01E
:102A600080510160006800F08050119016480168A4
:102A700041F4804101600068022400F4804011901C
:102A800001200090000401908001CDE9064019204A
:102A900008904FF4A870CDE9090404200B90684613
:102AA000FFF7A6F90CA90F2081E831004FF4A050E0
:102AB0000F90E002109005210CA8FFF7AFF813B0BB
:102AC00030BD0000403802400070004010480168EE
:102AD00041F4700101600F48016841F0010101609B
:102AE0000C4A00210832116002680B4B1A40026048
:102AF000031D0A4A1A60026822F480220260054817
:102B00000C300160024958068039086070470000A7
:102B100088ED00E000380240FFFFF6FE1030002490
:102B200070B5846B2068406994F83910C0F3C01008
:102B30000025212904D118B1E584204600F046F88B
:102B40002068406994F83A10C0F38010222904D11B
:102B500018B1E585204600F02BF8E06B40F010003E
:102B6000E0632046FFF712FB70BD10B50146806B95
:102B700009680968C90513D40021C1850168CA68BC
:102B800022F48072CA6001684A6922F001024A6137
:102B900001684A6922F040024A61202180F83A1017
:102BA000FFF716FC10BD10B5806BFFF712FC10BDCF
:102BB0000168CA6822F49072CA6001684A6922F00A
:102BC00001024A61202180F83A1070470168CA6802
:102BD00022F0C002CA60202180F83910704700003E
:102BE00038B5044600681649884210D11548006877
:102BF0000168C943C9060AD40168406800901148B9
:102C0000FFF798FA122210490E48FFF795FB0F497B
:102C10002068884212D10E4800680168C943C9067D
:102C20000CD40168406800900948FFF783FABDE8BA
:102C30003840012207490648FFF77EBB38BD000037
:102C400000100140940C00201004002000140140EA
:102C5000D40C0020980300202DE9F04104460068C0
:102C60000169E26821F44051114301612169A068C2
:102C7000E26908436169114322680843D16849F257
:102C80000C6399430143D16020684169A26921F432
:102C9000407111434161E2696425B2F5004F9748E4
:102CA000974922684FF032083FD08A4201D08242D1
:102CB0007CD1FFF75BF800EBC00101EB001061680D
:102CC0008900B0FBF1F6FFF751F800EBC00101EB12
:102CD000001061688900B0FBF1F0B0FBF5F06FF017
:102CE0001801484306EB800108EB0110B0FBF5F03A
:102CF00000F0F006FFF73AF800EBC00101EB00101E
:102D000061688900B0FBF1F0B0FBF5F006EB00164E
:102D1000FFF72CF800EBC00101EB0010616889009F
:102D2000B0FBF1F7FFF722F8D2E08A4201D08242ED
:102D30003DD1FFF71BF800EBC00101EB001061680B
:102D40004900B0FBF1F0B0FBF5F00601FFF70EF81B
:102D500000EBC00101EB001061684900B0FBF1F726
:102D6000FFF704F800EBC00101EB001061684900B7
:102D7000B0FBF1F0B0FBF5F06FF01801484307EB42
:102D8000800108EBC100B0FBF5F000F0F80006EBA5
:102D90004006FEF7EBFF00EBC00101EB001061689D
:102DA0004900B0FBF1F7FEF7E1FF3CE055E0FEF72C
:102DB000CDFF00EBC00101EB001061684900B0FBE2
:102DC000F1F0B0FBF5F00601FEF7C0FF00EBC0012B
:102DD00001EB001061684900B0FBF1F7FEF7B6FFA8
:102DE00000EBC00101EB001061684900B0FBF1F09D
:102DF000B0FBF5F06FF01801484307EB800108EBDA
:102E0000C100B0FBF5F000F0F80006EB4006FEF75D
:102E10009DFF00EBC00101EB001061684900B0FBB1
:102E2000F1F7FEF793FF00EBC00101EB00106168C2
:102E30004900B0FBF1F0B0FBF5F06FF0180148432A
:102E400007EB800108EBC100B0FBF5F000F00700D4
:102E5000216830448860BDE8F081FEF777FF00EB21
:102E6000C00101EB001061688900B0FBF1F6FEF7CC
:102E70006DFF00EBC00101EB001061688900B0FB41
:102E8000F1F0B0FBF5F06FF01801484306EB80015C
:102E900008EB0110B0FBF5F000F0F006FEF756FF6E
:102EA00000EBC00101EB001061688900B0FBF1F09C
:102EB000B0FBF5F006EB0016FEF748FF00EBC00193
:102EC00001EB001061688900B0FBF1F7FEF73EFFEF
:102ED00000EBC00101EB001061688900B0FBF1F06C
:102EE000B0FBF5F06FF01801484307EB800108EBE9
:102EF0000110B0FBF5F000F00F00A9E7001401404D
:102F0000001001400148FFF76BBE0000940C002048
:102F10000148FFF765BE0000D40C0020FEE700006A
:102F20000FB4054B10B503A9044A029800F0E4F869
:102F300010BC5DF814FB0000C13D0008B800002083
:102F40000907090E002804DB00F1E02080F80014D6
:102F5000704700F00F0000F1E02080F8141D70476A
:102F60002DED020B019820F0004001909DED000B2B
:102F700002B0704702E008C8121F08C1002AFAD147
:102F800070477047002001E001C1121F002AFBD1E9
:102F9000704700002DE9FF5FDDE90220010DDDF83B
:102FA00038B0024318D044F61050A1F2FF3141432B
:102FB0000D140F98012820D0A5EB0B00401C5FEAF0
:102FC000000A4FF00004474EDFF81C91A04650461F
:102FD00016D5CAF1000728E00F98012443A2012862
:102FE00008D0002100980F9BC0E90021C0E90243EE
:102FF000BDE8FF9F6FEA0B01F4E7CBF10000DEE7CD
:10300000074612E0F80707D02246334640464946B5
:10301000FDF732FA80468946224633461046194665
:10302000FDF72AFA04460E467F10002FEAD1DDE9AB
:103030000201BAF1000F42464B4602DAFDF71CFAD4
:1030400001E0FDF78BFA04460E460022284BFDF7FF
:1030500037FB03D84FF0FF30014607E00022254B35
:1030600020463146FDF761F9FDF739FC102409E0EF
:10307000002C0ADB0A220023FDF702F9019B303203
:103080001A55641E50EA0102F2D1641C019AC4F17F
:10309000110314440F9A012A03D0012208430DD1D1
:1030A0000AE0084304D000204FF0110B0F9080E796
:1030B000A3EB0B056D1E0DE05B4504DD4FF0000238
:1030C00005F1010504E003DA4FF00002A5F1010566
:1030D000002AECD000980F99C0E90231C0E9004500
:1030E00086E70000000024400000F03F30000000B0
:1030F0000000F0430000E03F2DE9FF4F95B09B46F4
:103100008946064600250FE2252877D10024274668
:10311000F84A0121059400E0044316F8013F203BE2
:1031200001FA03F01042F7D130782A2811D06FF05D
:103130002F033078A0F13002092A16D8059A44F0FE
:10314000020402EB820203EB42021044761C05905B
:10315000EFE759F8042B0592002A03DA504244F4B1
:103160000054059044F00204761C30782E2816D1C5
:1031700016F8010F44F004042A280DD06FF02F0236
:103180003078A0F13003092B09D807EB870302EB55
:103190004303C718761CF3E759F8047B761C307894
:1031A0006C280FD006DC4C2817D068280DD06A2870
:1031B00014D104E0742810D07A280FD10DE044F423
:1031C00000140AE044F4801401E044F440147278DE
:1031D000824202D104F58014761C761C3078662871
:1031E0000BD013DC582877D009DC002875D045288F
:1031F000F6D04628F4D047281AD19DE118E063287C
:1032000035D0642879D0652812D195E1702873D023
:1032100008DC6728F1D069286FD06E280DD06F28A0
:1032200006D1B5E073282CD0752875D0782874D0D5
:103230005A46179990476D1C75E1C4F30250022855
:1032400009D003280DD0D9F8001004280DD00D6046
:1032500009F1040967E1D9F80010EA17C1E9005241
:10326000F6E7D9F800100D80F2E70D70F0E719F8D5
:10327000041B8DF8001000208DF80100EA460120A3
:1032800003E059F804AB4FF0FF3061074FF0000145
:1032900002D40DE008F101018846B9420FDA8045F9
:1032A000F8DB1AF808100029F4D108E008F1010150
:1032B00088468142FADB1AF808100029F6D10598F1
:1032C0005B46A0EB080721463846179A00F094FAAF
:1032D000284400EB080507E04DE029E10DE01AF86D
:1032E000010B5A4617999047B8F10108F7D25B468F
:1032F00021463846179A13E142E00A220092C4F3AD
:1033000002524FF0000A022A08D059F804CB032ACF
:103310004FEAEC710AD00DE029E02AE009F107013B
:1033200021F00702F2E802C1914609E00FFA8CFC95
:103330004FEAEC71042A03D14FFA8CFC4FEAEC718E
:10334000002907DA0A460021DCF1000C61EB0201DA
:103350002D2202E0220504D52B228DF80420012223
:1033600003E0E20701D02022F7E7904659E00A2166
:1033700002E010220DE010214FF0000A00910BE056
:1033800010224FF0000A44F004040827009203E0E2
:1033900008224FF0000A0092C4F30252022A05D01C
:1033A00059F804CB0021032A08D009E009F10701EC
:1033B00021F00702F2E802C1914605E01FFA8CFCF9
:1033C000042A01D10CF0FF0C4FF00008220728D589
:1033D000702806D0009B83F0100353EA0A0305D03F
:1033E0000EE040228DF80420012208E05CEA010290
:1033F00006D030228DF804208DF805000222904678
:10340000009B83F0080353EA0A030AD15CEA010235
:1034100001D1620705D530228DF804204FF0010854
:103420007F1E582804D034A003900EA802900DE00F
:1034300036A0F9E753466046009AFCF721FF844620
:103440000398825C0298401E029002705CEA0100C0
:10345000F0D1029806A9081A00F1200A600702D5E7
:1034600024F4803400E00127574502DDA7EB0A0071
:1034700000E0002000EB0A01009005984144401A4A
:103480000590E00306D45B462146179A059800F0A4
:10349000B3F90544002706E001A85A46C05D179914
:1034A00090476D1C7F1C4745F6DBE0030CD55B465F
:1034B0002146179A059800F09FF9054404E0302052
:1034C0005A46179990476D1C0099481E0090002994
:1034D000F5DC08E0029802995A460078491C0291EE
:1034E000179990476D1CBAF10001AAF1010AF1DCAD
:1034F00065E10000092801003031323334353637B8
:10350000383961626364656600000000303132332F
:1035100034353637383941424344454600000000CF
:1035200000F058F90544761C307800287FF4ECADA3
:1035300019B02846BDE8F08F620700D4062709F1CC
:10354000070222F0070CFCE80223E14603F00048E2
:103550005FEA080C02D00FF2702C0DE05FEA045C09
:1035600002D50FF2682C07E05FEAC47C02D00FF2AC
:10357000602C01E0AFF2700C4FF0FF3823F00043F5
:10358000CDF850C065280CD006DC452809D0462867
:103590001DD047283DD13DE0662818D067287ED150
:1035A00038E00021112F01DB112000E0781CCDE96B
:1035B000000106A90EA8FFF7EDFCDDE90F010E9A48
:1035C00003910021009207F1010A04914DE04FF0B0
:1035D00000400097CDE9011006A90EA8FFF7DAFC1C
:1035E000DDE90F0203920E9B11990022DDF80CA079
:1035F0000093049211B9791C00EB010AB7EB0A00A1
:1036000004D4C0F1FF3007F1010A0490AAEB0700CF
:10361000019044E0012F00DA01270021112F01DD84
:10362000112000E03846CDE9000106A90EA8FFF7F9
:10363000B1FCDDE90F010E9A039100210491009283
:10364000BA4621070CD40399514500DA8A46BAF1EB
:10365000010F05DD009AAAF10101515C302908D063
:10366000B84202DA10F1040F06DA0121CDE90110A7
:1036700015E0AAF10101E9E7002805DC04990144FD
:103680000491AAEB000102E0411C514500DD8A468D
:103690000499401A401C01904FF00040029020070E
:1036A00004D40198504501DBCDF8048000208DF84A
:1036B0004F0002980DF14F07B0F1004F25D02B209D
:1036C0000E9002984FF0020800280CDA4042029057
:1036D0002D200E9007E00A210298FDF725F83031E1
:1036E000029007F8011DB8F10001A8F10108F2DC11
:1036F00002980028EFD1791E0E980870307800F0FB
:10370000200040F0450007F8020D12A8C01B00F190
:1037100007081498007800B1012000EB0A01019815
:1037200001EBE07105984144401A401E0590E0030A
:1037300006D45B462146179A059800F05DF80544CB
:103740001498007818B15A46179990476D1CE003F9
:1037500024D55B462146179A059800F04DF805449C
:103760001CE00498002807DBDDE90301884203DD43
:103770000098405C179901E0179930205A4690470D
:10378000049805F10105401C04900198401E019029
:1037900004D12E205A46179990476D1CBAF10001AA
:1037A000AAF1010ADDDC05E017F8010B5A4617996A
:1037B00090476D1CB8F10001A8F10108F4DC5B46EC
:1037C0002146179A0598ABE62D0000002B0000005B
:1037D000200000002DE9F041044600251E46174652
:1037E000880404D405E039462020B0476D1C641ECF
:1037F000F9D52846BDE8F0812DE9F04104460025C1
:103800001E469046C80301D5302700E020278804D3
:1038100004D505E041463846B0476D1C641EF9D515
:103820002846BDE8F081000030B5114B114C1968F5
:1038300004F1280239B9002054F8205042F82050F1
:10384000401C0A28F8DB491C1960C8290ED1002049
:103850000849C3F80000503154F8203052F8205085
:103860005B1B41F82030401C0A28F5DD30BD00000C
:10387000000000204401002000B58BB00020012191
:103880000190029003900590CDE90601009004900C
:103890000E200891099069460248FDF70DFB0BB018
:1038A00000BD0000180A002010B50448FDF72CFEEA
:1038B000BDE8104002210148FDF788BA180A00202F
:1038C00070B5B2EE080A2DED028B9FED208A2048DC
:1038D000B0EE481AF0EE480A00F06DFCB0EE481A5F
:1038E000F0EE480AB2EE0E0A1A4800F064FC184DD9
:1038F0009FED190A174885ED030A9FED180A1A4E25
:1039000085ED0A0A9FED160A184C80ED030A9FED1B
:10391000150A80ED0A0AD6ED010A94ED1B0A284625
:1039200000F04CFC95ED050A0A4884ED1A0AD6ED24
:10393000020A00F043FC94EC030A04F13400BDECED
:10394000028BBDE8704000F0F1BA000000000000FA
:103950005C050020900500200000C84300007A4468
:1039600000409C4500409C4684030020D400002079
:103970002DE9F041244D254E00242DED028B43F618
:10398000A4079FED238ADFED238A41F2707800BF00
:1039900004EBC40005EBC0004821FCF7BBFC04EBC2
:1039A000840000EBC40006EB8000B0EE481AF0EE95
:1039B000680AB1EE080A3A464146FEF7F7FD641C74
:1039C000062CE5DB70211448FCF7A4FCB0EE481A85
:1039D000F0EE480AB1EE040A40F2DC5200210F4832
:1039E000FEF7E4FDB0EE481ABDEC028BB3EE0D0A13
:1039F000BDE8F041DFED0A0A47F2305240F6B83137
:103A00000848FEF7D3BD0000D401002024040020A4
:103A100000000000CDCCCC3ED40000205C0500208E
:103A2000CDCCCC3D900500201CB5DFF804B1414D54
:103A30004FF0000A01F084FA019001F033F8287B7E
:103A4000002869D0FFF73CFFDFF8EC90DFF8EC804E
:103A5000002400BF04EBC40009EBC00005EB4407E1
:103A6000B0F9060000EE100AB7F93400F8EEC00A0B
:103A700000EE100A04EB840000EBC40108EB8106A1
:103A8000B8EEC00A304600F099FB96ED050A641CBA
:103A9000062CBDEEC00A10EE100A3885DADB287B52
:103AA000022812D0B5F92E000090B5F92C30B5F9E6
:103AB0002A20B5F9281000BF4FF4007000F03CFF39
:103AC000A968594509DA012108E0CDF800A0B5F947
:103AD0002A20B5F928100023EEE700216A685A452C
:103AE00001DA012000E000200143CDF800A005D05C
:103AF000B5F93220B5F93010002302E000231A4650
:103B0000194640F2FF1000F017FF00F0EBFF05210F
:103B100001A800F01AFB8DE7002354461A46194607
:103B20004FF40070CDF800A000F006FF0094E5E728
:103B300000004843D4000020D401002024040020C9
:103B40002DE9F0472DED028B84B082466CA1FDF784
:103B500009F800284ED16BA15046FDF703F8002864
:103B6000F8D169A15046FCF7FDFF0028F2D167A10A
:103B70005046FCF7F7FF0028ECD165A15046FCF752
:103B8000F1FFDFF890819FED648BD0B1D8F804008D
:103B9000FCF783FD53EC182BFCF7C7FBFCF7A8FDE3
:103BA0008146C8F80400D8F81400FCF776FD0646F4
:103BB0000F46D8F81000FCF770FD04460D46484645
:103BC0000DE057A15046FCF7CDFFA0B1D8F810008A
:103BD000FCF763FD53EC182BFCF7A7FB50E0FCF758
:103BE0005CFD8DE8F00041EC100B4EA053EC102B67
:103BF000FFF796F97DE050A15046FCF7B3FF40B1C6
:103C0000D8F81400FCF749FD53EC182BFCF78DFB9A
:103C100050E04AA15046FCF7A5FF20B3D8F80400B5
:103C2000FCF73BFD53EC182BFCF720FCFCF760FD88
:103C30008146C8F80400D8F81400FCF72EFD0646AB
:103C40000F46D8F81000FCF728FD04460D464846FC
:103C5000FCF723FD8DE8F00041EC100B31A053EC94
:103C6000102BFFF75DF936A15046FCF77BFFA0B1A2
:103C7000D8F81000FCF711FD53EC182BFCF7F6FBFD
:103C8000FCF736FD0446C8F81000D8F81400FCF71D
:103C900004FD06460F46204616E02AA15046FCF7D2
:103CA00061FFC0B1D8F81400FCF7F7FC53EC182BF7
:103CB000FCF7DCFBFCF71CFDC8F81400FCF7EDFC7E
:103CC00006460F46D8F81000FCF7E7FC04460D4600
:103CD000D8F8040083E71CA15046FCF743FF0028F6
:103CE00008D09FED1A0A88ED010A88ED040A88EDD4
:103CF000050A002004B0BDEC028BBDE8F08700008F
:103D00006100000062000000630000006400000029
:103D100075000000140000209A9999999999A93F7B
:103D200069000000503D25662020493D2566202081
:103D3000443D25660D0A00006F0000006A00000087
:103D40006B0000006C00000070000000000000002C
:103D500010B5028842800B885CBA0480A21AC3683E
:103D6000B2F5805F04DD5B1EA2F50052C36006E081
:103D700012F5805F03DA5B1C02F50052C3608262B9
:103D800004EB4332038C9FED0C1AD21A00EE102A7A
:103D90000261F8EEC00A80EE810ADFED080A80EDCC
:103DA000050A80EE201A80ED061A4A8852BAC280AF
:103DB000498849BA018110BD610BB641000010422B
:103DC00004490A685206FCD5024AC1B2121D1160AC
:103DD0007047000000140140154810B5047A417A7C
:103DE00000221448012C10D001239FED130A022C4D
:103DF0000FD0032C08D10373012908D0022903D165
:103E000080ED170A80ED180A10BD027310BD022163
:103E10000CE080ED170A80ED180A012905D002296F
:103E2000F3D00329F1D1037310BD0321017310BD39
:103E3000FC030020D40000200000000001A0FFF7D8
:103E40006FB80000476F310D0A00000010B51C78F4
:103E500004705C784470B0F9004000EE104AF8EE4F
:103E6000C00A9FED100A80EE801A82ED001A9C783D
:103E70000470DC784470B0F9000000EE900AF8EEAF
:103E8000E00A80EE801A82ED021A187908705879DB
:103E9000487098798870D879C87091ED000A82EDE1
:103EA000010A10BD6F1283C1054800F0EBFCFFF75B
:103EB000BBFCFFF791FF052000F040F9F4E700009C
:103EC000FC030020FDF714FEFEF7BCFDFEF7F0FA40
:103ED000FEF7A6FAFEF780FAFEF72AFBFEF748FB8C
:103EE00000F06EFD40F6B830FDF7FEFC00F048FD36
:103EF0004FF4FA70FDF7F8FCFFF7BEFC4FF47A6060
:103F0000FDF7F2FCFFF7D0FC6420FDF7EDFCFFF7B6
:103F10002FFD00F08BF8FEF7A1FA00F01DF9FEE787
:103F200001460020842900D0C81C704770EE203A5A
:103F300070EE600A10B5374970EEC12A2DED028B84
:103F400070EE810AD1ED171A33EE812A044630EE65
:103F5000A13A73EEC10A304832EE212A72EEA12A4C
:103F600070EEA13A70EE010A30EE410A80EC042AAC
:103F700070EEA10A91ED184A30EE210A70EE840A23
:103F800030EE048ABDEEC20AC0ED040A80ED058A57
:103F900010EE100AB1EE620A2080BDEEC00A10EEEB
:103FA000100ABDEEC30A608010EE100AB1EE630A7B
:103FB000A080BDEEC00A10EE100AE080087B032846
:103FC0000ED0BDEEE00A10EE100AB1EE480A2081D4
:103FD000BDEEC00A10EE100A6081BDEC028B10BD70
:103FE00010EE900AFCF759FB9FED0C1B53EC112BC4
:103FF000FCF742FAFCF732FB208118EE100AFCF7BE
:104000004CFB9FED081B53EC112BFCF735FAFCF72A
:1040100025FBE1E7D4000020BC000020CDCCCCCCB7
:10402000CCCCF43FCDCCCCCCCCCCF4BF10B500F094
:104030001DFCBDE8104070210148FCF76BB9000081
:10404000D40000202DE9FF41174D95ED020B51ECF6
:10405000100BFCF74DFB154E8046706095ED040B80
:1040600051EC100BFCF744FBB06095ED060B0446D9
:1040700051EC100BFCF73CFBF060FCF70EFB064626
:104080000F462046FCF709FB04460D464046FCF768
:1040900004FB8DE8F00041EC100B05A053EC102B55
:1040A000FEF73EFFBDE8FF81F80600201400002067
:1040B000504F3A256620494F3A256620444F3A250D
:1040C000660D0A0070B50C4C94ED020B51EC100B10
:1040D000FCF70EFB094D286194ED040B51EC100B1D
:1040E000FCF706FB686194ED060B51EC100BFCF736
:1040F000FFFAA86170BD0000F8060020140000203F
:1041000070B50C4C94ED020B51EC100BFCF7F0FA6F
:10411000094DE86194ED040B51EC100BFCF7E8FA43
:10412000286294ED060B51EC100BFCF7E1FA686283
:1041300070BD0000F80600201400002010B500B982
:10414000012000F023FD002010BD10B501B90121B0
:1041500000F042FD002010BD10B500F083FD0020EE
:1041600010BD7FB50D4604464169B0F9080081B124
:10417000A16971B1FFF7D4FED4E905128DE80700FB
:10418000D4E900102B46226900F0A1FE039004B090
:1041900070BDFFF7C5FE03A9CDE90001208A2B46BB
:1041A00082B2D4E9001000F065FE012801D00020A1
:1041B000EDE70398EBE780EC030A704710B504467F
:1041C0002DED0A8B30EE608A30EE600A80ED048AB5
:1041D00080ED078A90ED0B9AD0ED089AF0EEC08A38
:1041E000B5EEC09AF1EE10FA06D1B0EE480A39EEFB
:1041F000800A84ED080A39E0B0EEC90AF4EEC08AFC
:10420000F1EE10FA32D2B0EE480A10EE100AFCF7C6
:1042100044FA41EC1B0B19EE100AFCF73EFA41EC94
:104220001A0BB0EE680A10EE100AFCF736FA41ECF1
:104230001C0B19EE100AFCF730FA53EC1C2BFCF7A0
:1042400015F953EC1A2BFCF789F953EC1B2BFCF7EF
:1042500013F941EC1A0B19EE900AFCF71EFA53EC15
:104260001A2BFCF762F8FCF743FA206294ED030A7C
:10427000B5EEC00AF1EE10FA0FD0D4ED080AF4EE54
:10428000C00AF1EE10FA06DCB1EE400AF4EEC00A04
:10429000F1EE10FA01D284ED080AD4ED060AB0EE70
:1042A000480A30EE600A84ED090AD4ED0C0AF0EEFB
:1042B000E00AF4EEE08AF1EE10FA0CD210EE100AE9
:1042C000FCF7EBF99FED1D1B53EC112BFCF7D4F819
:1042D000FCF70EFA6062B0EE480A84ED060A94ED2F
:1042E000000A94ED081A60EE080A94ED010A40EE07
:1042F000010A94ED020A94ED091A40EE010AC4ED98
:10430000050A94ED0A0AB5EEC00AF1EE10FA11D0D2
:10431000F4EEC00AF1EE10FA01DD84ED050AD4EDE9
:10432000050AB1EE400AF4EEC00AF1EE10FA01D22D
:1043300084ED050ABDEC0A8B10BD00009A9999998D
:104340009999B93F2DE9F041184C0F460546666929
:104350002068001D00F054FB38B9206890F82C103C
:1043600001208840A1698143A161681C07D137B150
:104370002168BDE8F0410E48091D00F086BB2068A9
:104380003544B5424560216805D2A068BDE8F041DA
:10439000091D00F062BB6068091D00F05EFB206B28
:1043A000854200D22563BDE8F0810000580000205E
:1043B000B00E00202DE9F041054600F073FB2E4CB5
:1043C0002069401C206120682C4F10B1E06940B387
:1043D0002DE025602069012829D1002606EB860002
:1043E00007EB800000F02BFB761C072EF6D323484A
:1043F0008C3000F024FB2148A03000F020FB1F4847
:10440000B43000F01CFB1D48C83000F018FB1B48FE
:10441000DC3000F014FB19488C3060601430A06070
:1044200005E02068E96AC06A884200D82560E06A31
:10443000401CE062E96A0120A26988401043A06143
:1044400001EB810007EB8000291D00F01EFB00F04E
:1044500049FBE06900280CD02068E96AC06A8842FC
:1044600007D207494FF080500860BFF34F8FBFF36A
:104470006F8FBDE8F081000058000020D40D0020AF
:1044800004ED00E010B5044690F8510058B1012841
:104490000CD002280FD0502080F31188BFF34F8F2B
:1044A000BFF36F8FFEE7206B00F030FB2046BDE8C6
:1044B000104000F02BBB10BD10484FF47051420764
:1044C00006D0C01D0D4920F00700411AC1F57051FA
:1044D0000B4A00230144C2E900030839103A21F0D5
:1044E000070111604B600B600B1AC0E90013936069
:1044F0004FF000405360D06070470000C40E0020B1
:10450000A4000020144E154CA6F1C8074FF08058A7
:10451000DFF84C9012E000BF00F0C4FAF068C56804
:10452000281D00F06DFA2069401E2061E068401EE1
:10453000E06000F0D7FA2846FFF7A4FFE068002803
:10454000EAD138680128F9D9C9F80080BFF34F8F44
:10455000BFF36F8FF2E700009C0E00205800002090
:1045600004ED00E02DE9F0479A46DDE90984814633
:104570006FF00303206B03EB82021044089D20F0D0
:104580000706700707D0502080F31188BFF34F8FC4
:10459000BFF36F8FFEE723180A5C83F834200A5CB0
:1045A00012B1401C1028F6D3002784F84370072D61
:1045B00000D30625E562C4E91157201D00F04AFA30
:1045C00004F1180000F046FA2461C5F107006462A6
:1045D000A061E76484F8507052464946304600F0C6
:1045E000BFF82060B8F1000F01D0C8F80040BDE866
:1045F000F087000030B5114900E011460A68824298
:10460000FBD34B685C18844203D14068184448606F
:10461000084643681C18944209D1084C103C246891
:10462000A24209D052681A4442600A6812680260C5
:10463000814200D0086030BD0460F9E7A40000208A
:1046400006484168096829B14168C968C96849686C
:10465000016370474FF0FF31FAE700005800002077
:1046600008484068401C4FF0500080F3118804D087
:10467000BFF34F8FBFF36F8FFEE7BFF34F8FBFF3D3
:104680006F8FFEE7AC0000202DE9F04105460027C2
:1046900000F01EFB314E306808B9FFF70DFFF068DF
:1046A00005424BD1C5B3083568070ED005F00700A9
:1046B000C0F108000544680707D0502080F3118836
:1046C000BFF34F8FBFF36F8FFEE72DB37068854246
:1046D00034D82248103001460C6801E020460C46D0
:1046E0006168A94202D221680029F7D131688C4261
:1046F00024D007682168016060680837411B1029D1
:104700000FD96019420708D0502080F31188BFF3F9
:104710004F8FBFF36F8FFEE710E041606560FFF7DA
:1047200069FF61687068401A7060B268904200D298
:10473000B060F06801430020C4E9000100F06AFCA9
:10474000780707D0502080F31188BFF34F8FBFF355
:104750006F8FFEE73846BDE8F0810000940000202E
:1047600010B5031F4FF080741C601B1F21F0010166
:104770001960191F044B0B6014390A60091F6FF090
:10478000020244380A6010BD6146000878B50A7B11
:10479000022A62D24A7B022A5FD20A88C2F30A0244
:1047A000A2F5806202804B788C78DB0843EA4413E0
:1047B000C3F30A05B5F5806545808B78CC784FEA60
:1047C000931343EA84030C7943EA8423C3F30A0472
:1047D000A4F5806484800B794E794FEA530343EA51
:1047E000C613C3F30A03A3F58063C3804E794FEA6F
:1047F000961606724E79C6F30116467201D42E46FD
:1048000000E06E420A2E00DC00254580002C01DB12
:10481000254600E065420A2D00DC00248480002B40
:1048200001DB1C4600E05C420A2C00DC0023C38054
:10483000002A01DB134600E053420A2B00DC002271
:104840000280CA8842810A8982814A89C2810A7BA0
:1048500002744A7B4274C989418203480068016836
:104860004068009078BD0000940C002010B5142121
:104870000348FBF74FFD024802210172417210BD4F
:10488000FC03002070B50446B0F90200244D00EE90
:10489000100AF8EEC00AB2EE0A0A60EE800AC5ED10
:1048A000000AB4F9060000EE900AF8EEE00A60EEA5
:1048B000800AC5ED010AB4F9040000EE900AF8EE92
:1048C000E00A20EE800ADFED170A20EE200A85EDCF
:1048D000020AB4F90400FBF7B0FE41EC100BFEF73E
:1048E0003FFB9FED111B51EC100B53EC112BFBF711
:1048F000E7FE13D8B4F90400FBF79FFE9FED0C1BF5
:1049000053EC112BFBF7B8FDFBF7F2FE00EE100A9B
:10491000D5ED1B0A30EEC00A85ED1B0A70BD000004
:10492000D40000209A99993F000000000000244024
:104930004DDBBFB2D2A4443F30B40E4C029D206088
:104940000020A060E060082020610B480C0A047081
:104950004170110A8170C270190A01714371290AEC
:104960008171C571024630BC012302490348FCF73E
:104970003FBA0000BC0100200C000020180A0020F3
:1049800010B50C4C2068416812230B4A0B48FCF709
:104990006FFF2068416941F0400141612068C168B2
:1049A00041F01001C1602046BDE8104012220249CA
:1049B000FDF7C2BC940C002010040020140D002050
:1049C00010B50C4C2068416801230B4A0B48FCF7DA
:1049D0004FFF2068416941F0400141612068C16892
:1049E00041F01001C1602046BDE81040012202499B
:1049F000FDF7A2BCD40C0020CA030020740D0020D7
:104A0000D0E9013201699A60D0E901235A604A680D
:104A1000824201D182684A60002202610868401E19
:104A20000860086870470000034B036003F15400FE
:104A30000860802010607047400A0020704700F135
:104A400008014FF0FF32C0E90112C160016100218D
:104A50000160704700210161704730B50B685A1C36
:104A600002D000F1080202E0026904E02246546824
:104A700025689D42FAD953684B6099608A605160FD
:104A800008610168491C016030BD42684A60936852
:104A90008B6093685960916008610168491C0160EE
:104AA00070470000502080F31188BFF34F8FBFF391
:104AB0006F8F0A494868401C486001280CD108489B
:104AC000006810F0FF0F07D0502080F31188BFF36B
:104AD0004F8FBFF36F8FFEE770470000AC000020E0
:104AE00004ED00E00849486828B1401E486001D143
:104AF00080F311887047502080F31188BFF34F8FE7
:104B0000BFF36F8FFEE70000AC00002070B50028F7
:104B100027D0144DA0F108046168E868014207D16C
:104B2000502080F31188BFF34F8FBFF36F8FFEE7E4
:104B300022683AB1502080F31188BFF34F8FBFF342
:104B40006F8FFEE78143616000F0C2F860686968BA
:104B5000084468602046FFF74DFDBDE8704000F056
:104B600059BA70BD940000204FF0E020002101618F
:104B7000816105494FF47A720968B1FBF2F1491E6F
:104B800041610721016170475400002010B5020007
:104B900014D00F48806B38B1502080F31188BFF3D8
:104BA0004F8FBFF36F8FFEE700F092F800211046A1
:104BB000FFF7C8FB00F02EFA002807D105494FF097
:104BC00080500860BFF34F8FBFF36F8F10BD0000A0
:104BD0005800002004ED00E070B50D4604000BD035
:104BE00095B11E4A906BB8B1502080F31188BFF385
:104BF0004F8FBFF36F8FFEE7502080F31188BFF314
:104C00004F8FBFF36F8FFEE7502080F31188BFF303
:104C10004F8FBFF36F8FFEE700F05AF85269236899
:104C20005919934204D98B420AD9914202D807E01C
:104C30008B42FAD9881A21600021FFF783FB00E03C
:104C4000216000F0E7F9002807D105494FF08050B6
:104C50000860BFF34F8FBFF36F8F70BD5800002007
:104C600004ED00E010B586B00024039405AA04A961
:104C700003A80494FFF7D8FEDDE903010094CDE911
:104C8000011000230EA11048059A00F020F90F49E9
:104C90000028486311D0502080F31188BFF34F8F54
:104CA000BFF36F8F4FF0FF3008630120C8614C6184
:104CB00006B0BDE8104000F04DB806B010BD0000D1
:104CC00049444C45000000000545000858000020FC
:104CD0000248816B491C8163704700005800002026
:104CE00010B51A4CA06B10B10120606210BD0020FD
:104CF0006062206821680068096B884204D82168D6
:104D000020683431FFF79AFEA0691149B0FA80F0AB
:104D1000C0F11F0000EB800051F820206AB101EBC8
:104D2000800000F10802416849684160914201D168
:104D300049684160C868206010BD502080F3118828
:104D4000BFF34F8FBFF36F8FFEE7000058000020C6
:104D5000D40D00201CB537480168374A914207D16D
:104D6000502080F31188BFF34F8FBFF36F8FFEE7A2
:104D700000683149491E884207D1502080F31188CC
:104D8000BFF34F8FBFF36F8FFEE72C490878019078
:104D9000FF20087008788DF800009DF800009DF84D
:104DA000002000F0F000904207D0502080F31188DE
:104DB000BFF34F8FBFF36F8FFEE79DF80000204BCE
:104DC00000F0500018700720986005E09DF8002062
:104DD00052008DF80020401E9DF800201206F5D4E8
:104DE0009860032807D0502080F31188BFF34F8FBD
:104DF000BFF36F8FFEE74FF4407098600198087022
:104E00000C482030016841F470010160016841F0F4
:104E100070410160FFF7A8FE00205860FBF7E2F93F
:104E20000848016841F040410160FBF7C7F90020E4
:104E30001CBD000000ED00E071C20F4100E400E085
:104E4000AC00002034EF00E010B5502080F3118852
:104E5000BFF34F8FBFF36F8F00F078F818B104499C
:104E60004FF080500860002080F3118810BD0000D2
:104E700004ED00E02DE9FF5F8346DDE90E879946EA
:104E800016468A469000FFF7FFFB05001CD0542011
:104E9000FFF7FAFB040014D00020256384F85100CA
:104EA000CDE90240CDE900874B463246514658468F
:104EB000FFF758FB2046FFF77DFA012004B0BDE85C
:104EC000F09F2846FFF722FE4FF0FF30F6E7F0B5DF
:104ED00085B0DDE90B640A9DA6B1DCB154270097CB
:104EE0002663022684F85160002604AFCDE902460D
:104EF000CDE90057FFF736FB2046FFF75BFA049831
:104F000005B0F0BD502080F31188BFF34F8FBFF381
:104F10006F8FFEE7502080F31188BFF34F8FBFF3F0
:104F20006F8FFEE70548C16919B1806B18B1002089
:104F30007047012070470220704700005800002091
:104F40000148406970470000580000202DE9F041F9
:104F50002E4C0027A06B40B1206A401C2062606A82
:104F600000B101273846BDE8F0816669761C6661AC
:104F700013D16068006838B1502080F31188BFF306
:104F80004F8FBFF36F8FFEE76068A1686160A0601C
:104F9000A06A401CA062FFF753FB206BDFF8708013
:104FA000864209D36068006880B16068C068C568DF
:104FB000686886420DD220632068C06A00EB8001D9
:104FC00058F821000128CAD90127C8E74FF0FF305F
:104FD000F1E7281DFFF714FDA86A18B105F11800C4
:104FE000FFF70EFDE86A0121A26981401143A1612A
:104FF00000EB800108EB8100291DFFF746FDE86A00
:105000002168C96A8842CDD30127CBE75800002028
:10501000D40D00202DE9F0472C4D00242746A86B25
:1050200038B1FFF73FFDA86B401EA863A86B40B1E5
:1050300046E0502080F31188BFF34F8FBFF36F8F8E
:10504000FEE72969224E0120D1B3A6F1B4098046BA
:105050003068E8B1F068C46804F11800FFF7D0FCCC
:10506000201DFFF7CDFCE06AAA6908FA00F11143A0
:10507000A96100EB800109EB8100211DFFF705FD0F
:10508000E06A2968C96A8842E2D3C5F82480DFE76C
:105090000CB1FFF7D5FA2C6A44B14646FFF756FF2C
:1050A00000B16E62641EF9D100202862686A38B1CE
:1050B0000849012738070860BFF34F8FBFF36F8F90
:1050C000FFF710FD3846BDE8F087000058000020CB
:1050D000880E002004ED00E0645100081D26000841
:1050E000FDFF0000000000000001000000000000C3
:1050F0000000000058510008293A0008FDFF000098
:10510000000000000001000000000000000000009E
:105110004C510008A93E0008FDFF000000000000FF
:105120000001000000000000000000000006101652
:105130000006101600000000000000000102030439
:10514000060708090000000001020304496E666FAB
:105150005461736B0000000043686173736973549A
:1051600061736B0064656661756C745461736B0088
:105170009051000800000020BC000000742F0008BF
:105180004C520008BC0000200C4E0000842F000888
:10519000000000000000000000000000000000000F
:1051A00000000000000000000000000000000000FF
:1051B00000000000000000000000000000000000EF
:1051C00000000000000000000000000000000000DF
:1051D00000000000000000000100000010000000BE
:1051E000000000000024F4000000000000000000A7
:1051F00000000000000000000000000000000000AF
:10520000000000000000000000000000000000009E
:10521000000000000000000000000000000000008E
:10522000000000000000000000000000000000007E
:10523000000000000000000000000000000000006E
:0C524000AAAAAAAA0000000000000000BA
:040000050800018965
:00000001FF
